:100000000C94FD010C941A020C941A020C947D1CA1
:100010000C941A020C941A020C941A020C941A02F0
:100020000C941A020C941A020C949F230C947124C1
:100030000C948A1E0C941A020C941A020C941A0244
:100040000C941A020C941A020C941A020C941A02C0
:100050000C941A020C942E1F0C941A020C941A027F
:100060000C941A020C941A020C941A020C941A02A0
:100070000C941A020C941A020C941A020C941A0290
:100080000C941A020C941A020C941A020C941A0280
:100090000C941A020C941A020C941A020C941A0270
:1000A0000C941A020C941A020C941A0231053105B0
:1000B0005D055D05C505E305FB06FB06EE05870648
:1000C00098069806DE240525FD250525FD255125E4
:1000D0007425FD25CB25DA2514001A00090013002C
:1000E0000500040015001600170012001D001B007B
:1000F0000600070019002C00E100000000000000CD
:10010000E0001C0018000F000D0028000C00080083
:1001100011001000E20037000A000B000E002A0058
:100120000153000000000000E2002A003500230215
:100130003102E000E3002E001F02220239002B00F2
:1001400038003100200229002800000000000000D3
:1001500054002D00270226023300560025023000ED
:100160002F00340024022E0238021E0236001050E6
:100170000253000000000000E00042004300440081
:100180004500E1003E003F0040004100E2003A002F
:100190003B003C003D00E3002A000000000000009E
:1001A0003700610060005F004C0062005E005D008F
:1001B0005C00580036005B005A005900490010509E
:1001C0000353000000000000F400F900ED00FA0005
:1001D000E100F300EF00EE00F000E000FE00FD00A3
:1001E000FB00FC00FF00F100F20000000000000036
:1001F0004A004D0052004900B7004C004F0051002A
:100200005000B600AA00A9004B004E00B9001050E3
:1002100000000000000000000000000000000000DE
:100220002A2B280000000000000000000000000051
:1002300000000029000000002C1E3420212224345C
:100240002627252E362D3738271E1F20212223242E
:1002500025263333362E37381F0405060708090ACA
:100260000B0C0D0E0F101112131415161718191A66
:100270001B1C1D2F3130232D350405060708090AE4
:100280000B0C0D0E0F101112131415161718191A46
:100290001B1C1D2F3130354C0000000000000000F9
:1002A000000000000000000000000000000000004E
:1002B0000000000000000000000000007E0F00D4DD
:1002C000FFFFFFC7000000781A03460065007200B8
:1002D00072006900730020007300770065006500FC
:1002E00070000000080344005000420000000403B6
:1002F000090409023B00020100A0FA090400000100
:1003000003010100092111010001224000070581BC
:100310000308000109040100010300000009211184
:10032000010001227B000705820320000112010069
:100330000200000008ABC2393901000102000105CA
:10034000010902A10185020901A10005091901297C
:10035000081500250195087501810205010930097C
:10036000311581257F95027508810609381581258B
:100370007F950175088106050C0A38021581257FD5
:10038000950175088106C0C005010980A10185039A
:1003900019012AB700150126B700950175108100D3
:1003A000C0050C0901A101850419012AA00215014B
:1003B00026A002950175108100C005010906A10162
:1003C000050719E029E71500250195087501810247
:1003D0009501750881010507190029FF150026FF01
:1003E0000095067508810005081901290595057510
:1003F000019102950175039101C011241FBECFEF39
:10040000DAE0DEBFCDBF11E0A0E0B1E0E6E9FDE457
:1004100002C005900D92AE3BB107D9F722E0AEEBDA
:10042000B1E001C01D92A83BB207E1F70E9404169B
:100430000C94C9260C9400009C013A9521153F416B
:1004400030F5BC0166277270AC01442754709C01E2
:100450002227387094FF0FC090FF02C080E101C0D6
:1004600080E0672B09F08062452B09F08064232B24
:1004700079F080680895892F8170672B09F0826078
:10048000452B09F08460232B19F08860089580E0E3
:100490000895CF93DF93EB010E941C02FE01DF91D0
:1004A000CF910994CF93DF93EC01805E9109089777
:1004B00010F0209719F468EE74E002C063E777E06B
:1004C000CE010E9449028C2FDF91CF910C943E0403
:1004D000CF93DF93EC010E949404CE01805E9109DA
:1004E000089710F0209719F46FEE74E002C06AE7E5
:1004F00077E0CE01DF91CF910C944902CF93DF9347
:10050000EC010E945202C933D10549F42FEF87EE66
:1005100093E0215080409040E1F700C00000CE0100
:10052000DF91CF910C94680281E0089581E00895F5
:100530000C94960208950C949A021F93CF93DF9324
:1005400000D000D01F92CDB7DEB749835A836B83AA
:100550003091C10189819A81311114C0662359F00B
:10056000222349F00E944809182F682F89819A8117
:100570000E94EF0803C00E941B09182F69817A812D
:10058000812F04C00E94480969817A810F900F90E1
:100590000F900F900F90DF91CF911F910C948010CE
:1005A000FC01262F408151816281738184810C94EA
:1005B0009D0281E00895CF93DF93EC0160E00E94FB
:1005C000D002BE01DF91CF910C949B020C940C12CF
:1005D0000C94081208950E9499070E94EA022FEFD6
:1005E00084E39CE0215080409040E1F700C000008F
:1005F0000C94541F0F931F93CF93DF938C0161E0F2
:100600000E94D002EC01B8010E949802882309F4EC
:1006100044C0B801CE010E947E198823F1F1B801CF
:10062000CE010E94881B8823C1F1B801CE010E942F
:100630009C19882391F1B801CE010E94E41A882305
:1006400061F1F8018281882309F1CB358DE5D80766
:10065000C1F050F4C115FCE5DF0781F0CF3DDC456A
:10066000A9F40E94820E19C0CC35EDE5DE0761F0D9
:10067000CD35DD4559F40E94C50D08C00E94EB023E
:100680000CC00E94CE0D02C00E94D10DC801DF91A6
:10069000CF911F910F910C94940280E0DF91CF9144
:1006A0001F910F9108950E946D1E0C94DC030E940F
:1006B000DF030C94731EDF92EF92FF920F931F9350
:1006C000CF93DF93E82FF0E0E85EFD4FD490282F22
:1006D00026952695269530E0F901E854FD4F0491C2
:1006E000877010E0082E02C0159507950A94E2F76E
:1006F00001701127F901E855FD4FE490F12C082E07
:1007000002C0F594E7940A94E2F791E0E922FF240D
:10071000F901E856FD4FC491D0E002C0D595C795C8
:100720008A95E2F7C170DD270115110519F081EEF8
:100730000E943E04E114F10419F086EE0E943E048A
:100740008D2D0E94DF04EF2819F086EE0E9494049C
:10075000012B19F081EE0E949404CD2B51F08CE214
:10076000DF91CF911F910F91FF90EF90DF900C944C
:10077000DF04DF91CF911F910F91FF90EF90DF90F9
:100780000895982F9F709A50963010F0805D01C0A8
:10079000895A0C945B0308950C94CB0381E008956F
:1007A0000C94CE030895CF93C82F0E94CC038C2FB6
:1007B0000E94D003CF91089580E00C94D3030E944F
:1007C000A81D0C94D3030E94A81D9091C001891705
:1007D00021F08093C0010C94D3030895CF93DF934D
:1007E000CDB7DEB72B970FB6F894DEBF0FBECDBFE7
:1007F0004F83588769877A878B8761110E94110D13
:100800009E012F5F3F4F86E0F90111928A95E9F72B
:1008100085E0FE013796D90101900D928A95E1F7A6
:1008200089819A814C815D81452B31F09F3F31F464
:1008300091E08F3F19F403C091E001C090E090FF78
:1008400009C049815A816B817C818D819E810E9482
:100850002F0C05C0C9010E94D9028111F2CF2B963D
:100860000FB6F894DEBF0FBECDBFDF91CF910895D4
:10087000FC01808191810E948A090895CF93882389
:1008800009F450C0C82F8CEF8C0F813AD0F46C2F34
:1008900080910201909103010E940F1E882349F06C
:1008A0006C2F80910201909103010E94471E0E94CB
:1008B000330D6C2F80910201909103010E94451E1F
:1008C0000CC080E28C0F883058F4C77081E001C002
:1008D000880FCA95EAF70E94F10CCF910C94330D62
:1008E000EBE5EC0FE33040F4F0E0E857FE4F808199
:1008F00090E0CF910C94D71DE8E5EC0FE73150F470
:10090000F0E0EE0FFF1FE65AFE4F80819181CF91FC
:100910000C94ED1DCD3E30F08C2F0E948916CF91A6
:100920000C945B17CF910895882389F19CEF980F61
:10093000913A40F4682F80910201909103010E9446
:10094000471E0DC090E2980F983058F4877091E0E0
:1009500001C0990F8A95EAF7892F0E94F70C0C9431
:10096000330D9BE5980F933020F480E090E00C94D9
:10097000D71D98E5980F973120F480E090E00C9413
:10098000ED1D8D3E20F00E94E4160C945B17089537
:100990001F93CF93DF93182FEB010E943E04209703
:1009A00041F08FE99FE00197F1F700C00000219727
:1009B000F6CF812FDF91CF911F910C94940489334E
:1009C00019F060E070E002C060E570E00C94C804CB
:1009D000882321F00E94F10C0C94330D0895882394
:1009E00021F00E94F70C0C94330D0895CF92DF9202
:1009F000EF92FF920F931F93CF93DF937C01D62F3B
:100A0000C72FFC011281058102950F700E94E70C2F
:100A10008823B9F01123A9F08C2F807F803421F036
:100A200080E28D0F883068F080918D0282FD09C0D0
:100A300082E00E94930D0E94E70C91E0D82ED92607
:100A400001C0D12CCC2EC2948FE0C8228C2D90E016
:100A50008C30910508F0CFC1FC01EA5AFF4F0C948D
:100A600057268C2F807FCF70882311F0C295C07FCE
:100A7000112399F0CC2309F4AAC180E28D0F8830AC
:100A800010F0D11104C08C2F0E94F10C03C08C2FE8
:100A90000E94040D0E94330D9AC18D2F0E94940470
:100AA000CC2309F4A8C180E28D0F883038F1DD2312
:100AB00029F18C2F0E940A0D24C08C2F807FCF70CB
:100AC000803211F0C295C07FDD2319F0D130A1F141
:100AD0003DC080918D0282FF17C0112349F0CC23C5
:100AE00029F08C2F0E94F10C0E94330D80E070C120
:100AF00080E00E949404CC2309F47DC18C2F0E94D5
:100B0000F70C0E94330D77C1112371F0002341F0DF
:100B1000013031F40E94140D8C2B0E941C0D6BC10E
:100B20000E94140D8C2B1DC0002319F0013009F414
:100B300062C10E94290D25C0112321F0063008F062
:100B40005AC10EC0053008F056C11BC0112361F018
:100B5000002331F0F701858180FF39C18F708583D3
:100B60008C2F0E94E80447C1002359F0D93309F0C3
:100B70003FC1FFEF07EE13E0F15000401040E1F7F6
:100B800035C18C2F0E94EF0436C18C2F8695869537
:100B9000837019F0813061F02EC1112321F08D2F67
:100BA0009C2F937002C080E090E00E94D71D2BC163
:100BB000112321F08D2F9C2F937002C080E090E0D4
:100BC0000E94ED1D20C18D2F112319F00E9489165E
:100BD00002C00E94E4160E945B1715C18C2F83701F
:100BE00009F047C011110BC12D2F229526952770B2
:100BF000220F220F6D2F6F70862F90E0A0E0B0E0E3
:100C0000022E04C0880F991FAA1FBB1F0A94D2F797
:100C1000D4FF10C04FE050E060E070E004C0440F2B
:100C2000551F661F771F2A95D2F7409550956095FE
:100C3000709503C040E050E0BA01C695C695C370F8
:100C40008A019B01082B192B2A2B3B2BC901B801C8
:100C5000C23049F058F4C13019F00E940508CFC0E5
:100C60000E94F307CCC00E941708C9C00E94F10778
:100C7000C6C0112319F08C2F817001C0869588237E
:100C800009F4BDC02D2F229526952770220F220F23
:100C90006D2F6F70862F90E0A0E0B0E0022E04C0B0
:100CA000880F991FAA1FBB1F0A94D2F7D4FF10C048
:100CB0004FE050E060E070E004C0440F551F661F35
:100CC000771F2A95D2F7409550956095709503C08F
:100CD00040E050E0BA01C695C695C3708A019B01F9
:100CE000082B192B2A2B3B2BC901B801C23049F024
:100CF00058F4C13019F00E94CA0881C00E94B80897
:100D00007EC00E94DC087BC00E942B0878C0CF7098
:100D1000112339F08C2F0E9451088D2F0E94E80476
:100D20006EC08D2F0E94EF048C2F0E94720867C046
:100D3000D23F21F128F4D03F41F0D13FC1F043C070
:100D4000D33F19F1D43F79F03EC0112341F0053073
:100D500008F051C08C2F8F710E9497084CC006304C
:100D600008F049C0F7CF80918D0282FF18C011238F
:100D700039F08C2F8F710E9451083DC01123C9F3A7
:100D80008C2F8F710E94720836C0112329F08C2F8E
:100D90008F710E943C082FC00E9437082CC011237D
:100DA00049F0CF718C2F0E94510863E08C2F0E9474
:100DB000780D21C081E00E94930D0230E0F082E0C6
:100DC0000E94930D18C0112331F0002391F28D2F52
:100DD0000E943E0410C0002399F2D93349F41FEF5A
:100DE00027EE33E0115020403040E1F700C0000012
:100DF0008D2F0E94940488EF8C0D843020F40E9483
:100E0000A81D0E94D303DD20C9F00E94E30C80FDE1
:100E100015C0F70112820E94DD0C0E945108C70123
:100E20000E943F070E94DD0CDF91CF911F910F912F
:100E3000FF90EF90DF90CF900C947208DF91CF91EC
:100E40001F910F91FF90EF90DF90CF9008950F9337
:100E50001F93CF93DF93EC01688179818A810E948F
:100E600095098C010E94EE080E94DF07B801CE01AF
:100E70000E94F604DF91CF911F910F910895CF93B7
:100E8000DF93EC01988189812B813C81232B31F008
:100E90008F3F31F481E09F3F19F403C081E001C02E
:100EA00080E080FD1DC0CE010E94FA02811110C0B9
:100EB0000E94E70C8823A1F08A81882389F0809121
:100EC0008D0282FD0DC082E0DF91CF910C94930DD5
:100ED000CE010E942707CE01DF91CF910C94DB0257
:100EE000DF91CF910895882321F00E94040D0C9486
:100EF000330D0895882321F00E940A0D0C94330DC0
:100F0000089580E090E00E94D71D80E090E00E946C
:100F1000ED1D0E94110D0E94330D0E948C180C943F
:100F20005B1780910201909103010E94491E0C946D
:100F300081070E94010D0C94910792959F70963045
:100F400079F010F4925001C09A50923068F4803FCA
:100F500069F018F4883E40F409C0843F29F406C0C3
:100F6000883E20F0813F11F080E0089581E00895EF
:100F7000FC01808191810E948A090E949D07089549
:100F8000CF93DF9300D000D01F92CDB7DEB70F9084
:100F90000F900F900F900F90DF91CF910895CF9306
:100FA000DF9300D000D000D0CDB7DEB726960FB6C5
:100FB000F894DEBF0FBECDBFDF91CF9108950895A5
:100FC00008950C94E0070C94E1070E94E3076093F6
:100FD000DF017093E0018093E1019093E2010C94B2
:100FE00081070C94E5070F931F930091DF01109187
:100FF000E0012091E1013091E201602B712B822B05
:10100000932B1F910F910C94E5070F931F93009161
:10101000DF011091E0012091E1013091E2016023B4
:101020007123822393231F910F910C94E5070F9353
:101030001F930091DF011091E0012091E1013091B7
:10104000E20160277127822793271F910F910C944B
:10105000E5070C94E0070E9429086093DB01709378
:10106000DC018093DD019093DE010C94810760E048
:1010700070E0CB010C942B080F931F9341E050E0DC
:1010800060E070E08A019B0104C0000F111F221F65
:10109000331F8A95D2F7C901B8011F910F910C94A3
:1010A0002B080F931F9341E050E060E070E004C014
:1010B000440F551F661F771F8A95D2F78091DB0179
:1010C0009091DC01A091DD01B091DE018A019B01CC
:1010D000082B192B2A2B3B2BC901B8011F910F910B
:1010E0000C942B080F931F9341E050E060E070E0F8
:1010F00004C0440F551F661F771F8A95D2F740958D
:101100005095609570958091DB019091DC01A091E4
:10111000DD01B091DE018A019B01082319232A23F6
:101120003B23C901B8011F910F910C942B080F9319
:101130001F9341E050E060E070E004C0440F551F91
:10114000661F771F8A95D2F78091DB019091DC01B1
:10115000A091DD01B091DE018A019B0108271927CA
:101160002A273B27C901B8011F910F910C942B0826
:101170000F931F930091DB011091DC012091DD01A1
:101180003091DE01602B712B822B932B1F910F91DD
:101190000C942B080F931F930091DB011091DC013D
:1011A0002091DD013091DE0160237123822393239E
:1011B0001F910F910C942B080F931F930091DB014B
:1011C0001091DC012091DD013091DE016027712753
:1011D000822793271F910F910C942B08089524E0E8
:1011E000929F900D1124890FE82FE695E695E695DC
:1011F000877051E001C0550F8A95EAF785E0E89FB6
:10120000F0011124EE53FE4F20E030E070E0408109
:10121000CB01022E02C0969587950A94E2F7817061
:10122000819584278523842781932F5F3F4F253025
:10123000310569F7089524E0929F900D1124890FDC
:10124000682F669566956695982F977085E0689FDC
:10125000B001112440E050E080E0FB01E40FF51FF5
:10126000EE53FE4F208130E0092E02C036952795BF
:101270000A94E2F721703327042E01C0220F0A944A
:10128000EAF7822B4F5F5F4F4530510531F70895E4
:10129000BF92CF92DF92EF92FF920F931F93CF9363
:1012A000DF938C01C090DB01D090DC01E090DD0188
:1012B000F090DE018091DF019091E001A091E101C9
:1012C000B091E201C82AD92AEA2AFB2ACFE1D0E06C
:1012D000D701C6010C2E04C0B695A79597958795A2
:1012E0000A94D2F780FD04C0219790F7B12C07C073
:1012F000BC2EB8018C2F0E9493100197A9F38B2D5F
:10130000DF91CF911F910F91FF90EF90DF90CF90E1
:10131000BF900895CF93DF93EC010E944809BE016E
:101320000E949310DF91CF9108951F93CF93DF9385
:10133000EB019091C101992321F0CB010E948A0910
:1013400013C0882349F0CB010E944809182F682F49
:10135000CE010E94EF0804C0CB010E941B09182F88
:10136000BE01812F0E949310DF91CF911F910895AC
:101370001F93CF93DF93C091E30116E08091E401C6
:10138000C81799F0D0E01C9FF0011D9FF00D1124AB
:10139000EB51FE4F4081518162817381848195813F
:1013A0000E94CF072196C770E9CFDF91CF911F919F
:1013B00008954091150250911602609117027091A4
:1013C00018028091190290911A020C94CF07EF92A3
:1013D000FF920F931F93CF93DF9380911A02829510
:1013E0008F7009F065C080911702882309F460C0EE
:1013F0008091E301F090E401109115020091160232
:10140000609118027091190291E01F3F09F090E07D
:10141000C0910001D0910101292F96E0E92E8F158E
:1014200009F446C06115710521F00F3F21F030E04D
:1014300003C031E001C0322F90E030FD36C0E89E9D
:10144000F001E99EF00D1124DF01AB51BE4F119662
:101450003C911197301329C03C91311326C012964C
:101460003C911297311121C013964D915C911497C4
:10147000461B570B4C175D07C0F480911A028F7002
:10148000806180931A02E651FE4F80818F708061E7
:10149000808385E192E00E943F07DF91CF911F9109
:1014A0000F91FF90EF900C94B80901968770B7CF19
:1014B000DF91CF911F910F91FF90EF9008959F9230
:1014C000AF92BF92CF92DF92EF92FF920F931F9352
:1014D000CF93DF93CDB7DEB761970FB6F894DEBF39
:1014E0000FBECDBF8C0185E0F801DE011D96019095
:1014F0000D928A95E1F7D8011296EC909091150221
:10150000E09116022091180230911902211531053F
:1015100031F0EF3F31F481E09F3F19F403C081E0E7
:1015200001C080E0B82FB1709B2E80FD47C1D8016B
:101530004C9111965C9111971396AD90BC901497B5
:1015400085E1C82E82E0D82EF0901702B501621B0B
:10155000730B2091000130910101FF2009F4D9C0E3
:1015600080911A026217730708F095C0282F207F18
:1015700009F052C05E1313C0491311C0FE2CE110D4
:101580000EC08F70806180931A020E94D909C60133
:101590000E943F0780911A02F80185834DC1AB2854
:1015A00031F05F3F31F481E04F3F19F403C081E037
:1015B00001C080E080FD03C081E08E2502C080E094
:1015C00090E0F82FF170FF2E80FF1CC08091E301A6
:1015D0002091E40136E0821709F40BC190E0389FB6
:1015E000F001399FF00D1124EB51FE4F618156132C
:1015F00006C06081461303C06281E61203C00196F3
:101600008770E9CFFE2CEE2009F416C180911A02F2
:10161000816080931A0254C05E1306C0491304C04F
:10162000E11002C0F80199C0C8010E94B8078823E0
:1016300061F1EE2051F120911A02822F82958F7074
:1016400090E0029774F080911502909116029887AD
:101650008F831986BB86AA862C87CE0107960E94A7
:101660003F0786E0F801A5E1B2E001900D928A956E
:10167000E1F70E94E7090E94D9090AC05E1711F13B
:10168000C8010E94B80781112CC0C8010E943F0701
:10169000FF24F394D1C0282F207F81F77A2DB98AB7
:1016A000A88A6E2D89890E94C00785E192E00E9478
:1016B0003F0786E0D6011D928A95E9F70E94D90975
:1016C000F12CBAC04913DCCFE110DACFF8018583E1
:1016D000C8010E943F0786E0D6011D928A95E9F76E
:1016E000ABC0EE2091F220911A02822F82958F706A
:1016F00090E002970CF4B5CF8091150290911602FC
:101700009A8389831B82BD82AC822E83CE0101968F
:10171000A6CF6217730708F044C0FE2CEE2009F430
:10172000B4CF5E1330C049132EC020911A0220FDA1
:1017300021C0822F82958F70482F50E041155105AE
:10174000C9F0F80125834F30510541F08F5F982F84
:101750009295907F822F8F70892B8583C8010E947C
:101760003F0786E0F801A5E1B2E001900D928A956D
:10177000E1F73CC086E0F801A5E1B2E001900D92EE
:101780008A95E1F759C0C8010E94B807811169CF55
:1017900080911A02816080931A02C8010E943F075B
:1017A0004BC07A2DB98AA88A6E2D89890E94C007FC
:1017B00086E0D6011D928A95E9F718C0EE2009F45B
:1017C00064CFC8010E94B807F82E882309F45DCFC2
:1017D00086E0F801A5E1B2E001900D928A95E1F76B
:1017E00085E192E00E9438040E94E7090E94D9092D
:1017F00023C04D875E878D859E850E948A09292F8B
:1018000022952F70223028F49F7039F0811105C085
:101810000BC0243028F49F7049F4805E883020F09B
:10182000C8010E943F079F2CF92C06C0D8011596CD
:101830009C91907F91F7F8CF8F2D61960FB6F89419
:10184000DEBF0FBECDBFDF91CF911F910F91FF90F3
:10185000EF90DF90CF90BF90AF909F9008951F932F
:10186000CF93DF93CDB7DEB72C970FB6F894DEBFDA
:101870000FBECDBF4F83588769877A878B879C8738
:10188000CE0107960E945F0A8823D1F09F81888548
:101890002A853B85232B31F08F3F31F481E09F3F38
:1018A00019F403C081E001C080E080FD47C04F8192
:1018B000588569857A858B859C850E94CF073EC0B7
:1018C00086E0FE013796DE01119601900D928A9511
:1018D000E1F7FF81E8856A857B856115710531F047
:1018E000EF3F31F481E0FF3F19F403C081E001C014
:1018F00080E080FD23C02091E40130E0C901019621
:10190000877099274091E30150E084179507F1F122
:10191000F983EA837D836C8396E0929FD001939F45
:10192000B00D1124AB51BE4FFE01319601900D92C6
:101930009A95E1F78093E4010E94B80916E080913E
:10194000E3019091E401891771F1189FC0011124FE
:101950008B519E4F0E945F0A882329F1E091E30199
:101960001E9FF0011124EB51FE4F40815181628195
:101970007381848195810E94CF078091E30190E07B
:101980000196877099278093E301D9CF0E94990728
:101990001092E4011092E301E5E1F2E086E0DF015C
:1019A0001D928A95E9F72C960FB6F894DEBF0FBE0C
:1019B000CDBFDF91CF911F9108958091230285952E
:1019C000859585950895809123028770089590915B
:1019D0002302977081E009F480E0089580912E023F
:1019E000089590912E02892B80932E020895809560
:1019F00090912E02892380932E02089580932E02C7
:101A0000089510922E02089590912D02892B8093B3
:101A10002D020895809590912D02892380932D02A7
:101A2000089510922D02089580912402089508953A
:101A30000C94170D0C94180D90918D0292FD08C016
:101A400090912402981721F0809324020C941A0D8F
:101A5000089580912402882329F01092240280E0C6
:101A60000C941A0D0895CF93DF93E0910201F09149
:101A7000030180912E028083E0910201F091030125
:101A8000908180912D02892B80838091240288236C
:101A900081F0E0910201F09103019081892B808314
:101AA00080910201909103010E94031E81110E9406
:101AB000290DC0910201D091030148E050E06BE193
:101AC00072E0CE010E947126892B69F088E0FE0148
:101AD000ABE1B2E001900D928A95E1F7CE01DF9182
:101AE000CF910C94BE1DDF91CF9108950C94170DEA
:101AF00090918D0292FD10C098E0899F9001112471
:101B0000262B209323020E94510880912302859561
:101B1000859585950C94760D0C94510810922302AE
:101B200080E00C94760D209123028095822380938F
:101B30002302982F977099F430E0482F082E000C5C
:101B4000550B2417350759F090918D0292FD07C06F
:101B50008595859585950E9472080C948E0D089543
:101B600090918D0292FB222720F9281769F080FBC3
:101B700092F990938D0280918C0290918D020E9437
:101B8000FE0D82E00C94930D089580918D0282FBEE
:101B9000882780F991E089270C94B00D81E00C949E
:101BA000B00D80E00C94B00D6FEF7FEF80E090E01F
:101BB0000C94B32680E090E00E948F2621E0893EBD
:101BC0009E4F09F020E0822F089582E090E00C946F
:101BD000872683E090E00C948726CF9384E090E002
:101BE0000E948726C82F82E290E00E9487262C2F31
:101BF00030E0A901582BCA01CF910895CF93C92F86
:101C0000682F84E090E00E9495266C2F82E290E09D
:101C1000CF910C949526AB01BC018FE090E00C9421
:101C2000A726AB01BC0183E190E00C94A72660E0FD
:101C300070E0CB010C94110E60E070E0CB010E94CB
:101C40000B0E0C94170E69EE7EEF80E090E00E9480
:101C5000B32660E082E090E00E94952660E083E099
:101C600090E00E9495261092DF011092E001109200
:101C7000E1011092E20160E084E090E00E9495268C
:101C800060E082E290E00E94952660E085E090E0CE
:101C90000E94952660E086E090E00E9495266FEF16
:101CA00087E090E00E94952640E050E0BA0188E08D
:101CB00090E00E94A72660E08DE090E00E949526CB
:101CC00040E050E0BA0188E190E00E94A72660E081
:101CD00087E190E00E94952640E050E0BA018CE157
:101CE00090E00E94A72660E070E080E290E00E9411
:101CF000B32640E050E0BA0188E190E00E94A726B8
:101D00000C941C0E0C94230E8EE090E00E9487260B
:101D100091E0811101C090E0892F0895682F8EE035
:101D200090E00C9495260E94F71E60933B027093FE
:101D30003C0280933D0290933E0260933702709381
:101D400038028093390290933A02089585B78068EB
:101D500085BF85B7806885BF08950C94C713089523
:101D60000C94AF0E0C94AF0E0C94B20E0C94AF0EFC
:101D70000C94B60E0C94AF0E0E94A60E80EB91E16F
:101D80000E949E1D0E94BA0E0C94B80E0E94B00EC6
:101D90000C94AF0E0E94DA110E94D2030C94DA1850
:101DA0000E94E21E0E946F110E94DF130E94DD124A
:101DB0000E94CA0E0E949A180E94E9130C94B40E55
:101DC0008F929F92AF92BF92CF92DF92EF92FF924B
:101DD0000F931F93CF93DF93CDB7DEB72A970FB63C
:101DE000F894DEBF0FBECDBF0E943A13982E81112A
:101DF0000E94930E8FE2A82E82E0B82E00E010E041
:101E0000802E802F0E94FE11D82EF501C1905F0117
:101E1000C826B1F40F5F1F4F0830110589F78FEF07
:101E200089838A831B820E94EB1E8160782F9D83A9
:101E30008C8349815A816B818D810E94EE032FC072
:101E400080913F0281FD0E940412E12CFF24F39453
:101E50008C2D8F21F1F00E94AD0E882399F0EE8237
:101E60008F82DF2081E009F480E088870E94EB1EEA
:101E70008160782F9A8789874E815F8168858A85FE
:101E80000E94EE03F801E15DFD4F8081F826F082AB
:101E900006C0E394FF0CF5E0EF12DACFBBCF81E090
:101EA000911001C080E02A960FB6F894DEBF0FBEF5
:101EB000CDBFDF91CF911F910F91FF90EF90DF90F9
:101EC000CF90BF90AF909F908F9008950E94E00EAA
:101ED0000E94C7130E9479170C94E303CF93DF93FA
:101EE0000E949810EC01811521E5920708F045C089
:101EF000811530E5930708F094C0883E910528F5D8
:101F0000803E910508F0F8C0883A910570F4853A52
:101F1000910508F07CC08130910509F475C008F482
:101F2000E8C0049708F0E8C0E4C08F3B910508F0D2
:101F3000E0C0C85AD0E0CC0FDD1FC557DE4F099076
:101F4000D881C02DCE019464D8C0811540E2940799
:101F500058F4811551E0950708F0CEC08D3E9105EB
:101F600008F4C7C09065C9C0C11580E4D80708F45B
:101F7000C0C0DF70CE01906AC0C0811525E5920710
:101F8000A8F4811534E5930708F095C0811543E561
:101F9000940708F07BC0811552E5950708F061C0F1
:101FA000D82FCC27CE01816F906AA7C0C11589E5D3
:101FB000D807A0F4C11528E5D20708F082C0C115E2
:101FC00036E5D30708F095C08C2F0E942C118F7135
:101FD00090E0D82FCC27CE0190628FC0C1154AE582
:101FE000D40708F474C0CE0190568115904208F0D1
:101FF00080C08D2F8F710E942C11DD27D0628F71D0
:10200000AE01582BCA0179C081E090E076C0C55A74
:10201000D0E0C754DE4F8881C82FD0E0CE01906455
:102020006CC074E0969587957A95E1F7282F237018
:102030003C2F337081E090E002C0880F991F3A95E1
:10204000E2F79C68AC01522B9A019C2F9F709695E9
:10205000969550E2959FE0011124C9018C2B9D2B90
:102060004CC08370992721E030E002C0220F331F5B
:102070008A95E2F79C2F9695969580E2989FE001CD
:102080001124C22BD32BCE019C6837C083709927B3
:1020900021E030E002C0220F331F8A95E2F79C2F27
:1020A0009695969540E2949FE0011124C22BD32B84
:1020B000CE019A6822C0D82FCC27CE01846F906AB7
:1020C0001CC0DC2FCC27CE01806F906A16C08C2FED
:1020D0008F700E942C1194E0D695C7959A95E1F7E0
:1020E000CF70D0E0DC2FCC27D0699E01282BC9010E
:1020F00004C080E090E001C0CE01DF91CF9108954F
:1021000028E2829FC0011124FC0125E0729FE00DAE
:10211000F11D1124E60FF11DEE0FFF1FE852FF4FD6
:102120008591949108950E9480100E946E0F0895E9
:102130008238910569F1B0F48133910509F46DC0DD
:1021400048F48932910509F463C08A32910509F493
:1021500069C008958533910509F455C08933910507
:10216000B9F00895833E910569F138F4803E9105F8
:10217000B1F0823E910509F10895863E9105A9F1DD
:10218000873E9105B9F1843E910509F064C023C0F2
:1021900020918C0220FD4FC021FD4DC008958091FB
:1021A0008C0280FD44C080918D0280FF44C08091EC
:1021B0008C0284FD42C083EE4DC080918C0282FF70
:1021C00038C0F5CF80918C0282FD33C080918D02A2
:1021D00080FD31C0ECCF80918D0281FF32C08091B3
:1021E0008C0284FD2AC087EE35C080918C0283FF6B
:1021F00026C0F5CF80918C0283FD21C080918D0295
:1022000081FD1FC0ECCF80918C0285FD1CC01DC0DC
:1022100080918C0285FD19C016C080918C0286FDCC
:1022200016C017C080918C0286FD13C010C089E3D0
:1022300011C082EE0FC080EE0DC080E00BC086EEB4
:1022400009C084EE07C089E205C085E303C08AE2C5
:1022500001C081E390E0089590918C0292FF0DC03F
:10226000282F2871283019F4877F846006C0282F12
:102270002471243011F48B7F886093FF0DC0282FC8
:102280002871283119F4877E846106C0282F2471B3
:10229000243111F48B7E886120918D0220FF0DC0C6
:1022A000382F3871383019F4877F816006C0382F95
:1022B0003171313011F48E7F886021FF0DC0282FDD
:1022C0002871283119F4877E816106C0282F217179
:1022D000213111F48E7E886194FD877E08951092DD
:1022E00088021092890210928A0210928B0208953D
:1022F000CF92DF92EF92FF926B017C010E94C71395
:1023000081110EC00E94F71EC61AD70AE80AF90A00
:10231000C0928802D0928902E0928A02F0928B02E7
:10232000FF90EF90DF90CF9008950F931F930E943E
:10233000C713882321F01F910F910C94F71E0E9460
:10234000F71E009188021091890220918A02309133
:102350008B02600F711F821F931F1F910F910895B1
:1023600080E008950C94D40DCF930E943A138FE32C
:102370009CE90197F1F700C000000E943A130E9407
:10238000C513811102C0C4E001C0C0E08C2F0E94BF
:10239000FE1190E002C095958795CA95E2F780FFFF
:1023A00005C00E94B211CF910C94541FCF91089593
:1023B0000C94B4110E94DA0D811102C00E94820EA9
:1023C0000E94E50D80933F020E94ED0D90938D02D7
:1023D00080938C020E94D8110E94E90D682F70E052
:1023E00080E090E00E94F1076091DB017091DC01D8
:1023F0008091DD019091DE010C942908E82FF0E036
:10240000E956FD4F80810895089508950C940512B2
:102410000C9406120C9405120C940A120C940512DA
:102420000F931F93CF93DF9300D000D0CDB7DEB7CB
:102430000E94C71360919F028823E9F119821A82D2
:102440001B821C82862F90E08E010F5F1F4FB80108
:1024500089569D4F0E94F713882389F080918E0240
:1024600090E044E050E0B80189569D4F0E947126EB
:1024700021E020934002892B69F410E019C080917B
:1024800040028823D1F384E0F80111928A95E9F79C
:1024900010924002E0918E02F0E0E956FD4F8981F2
:1024A0009A81AB81BC8180839183A283B38311E045
:1024B0000E94E8020DC070E069567D4F80918E0247
:1024C00090E089569D4F0E9481140E940E1210E0E8
:1024D000812F0F900F900F900F90DF91CF911F9150
:1024E0000F910895CF93DF9344E051E0A1E0B0E075
:1024F00020E030E0FA01E20FF31F80818F3FA1F06E
:10250000E82FE295EF70F0E061A18F70ED0102C05D
:10251000CC0FDD1F8A95E2F7CE019C2F9095962374
:1025200091A392A1892B82A32F5F3F4F25303105C4
:1025300009F74B5F5F4FD1E048315D07C9F6DF9186
:10254000CF9108950F931F93CF93DF93EC01062F44
:1025500010E085E0689FB001112440E050E0B1E058
:10256000A0E0CA01860F971F8C5F9E4FFC019081EF
:102570009F3FA1F0292F22952F7030E0F90120A173
:1025800030E09F7002C0359527959A95E2F720FDBF
:1025900002C08B2F02C080E090E0A82BBB0F4F5FE2
:1025A0005F4F45305105E9F6F801EC0FFD1FA083A0
:1025B000DF91CF911F910F910895CF93DF93CDB706
:1025C000DEB764970FB6F894DEBF0FBECDBF809123
:1025D0001801811125C084E1E6E4F1E0DE011196E5
:1025E00001900D928A95E1F7CE01019644E051E009
:1025F000BE016B5E7F4F20E030E0FA01E20FF31F77
:10260000DC01A20FB31FAC91A0832F5F3F4F253099
:10261000310599F705964B5F5F4F8617970759F776
:1026200080911801811102C094E001C090E0909364
:102630009F0284E0891B80938E020E94721288E0C0
:10264000E7E9F2E0DF01982F1D929A95E9F7EFE8AC
:10265000F2E0DF011D928A95E9F784E00E948E1373
:1026600064960FB6F894DEBF0FBECDBFDF91CF9159
:102670000C94E602EF92FF920F931F93CF93DF9398
:10268000CDB7DEB728970FB6F894DEBF0FBECDBF2B
:102690008E010F5F1F4F88E0F80111928A95E9F7CC
:1026A000F12C6F2DC8010E94A212F394F4E0FF12E6
:1026B000F8CF48E050E0B8018FE892E00E94712620
:1026C0007C0121E0892B09F420E0E114F10441F0C0
:1026D00088E0F801AFE8B2E001900D928A95E1F749
:1026E00060919F0270E069567D4F44E08FE892E070
:1026F0000E948F13EF2819F40E94101202C081E08B
:1027000090E028960FB6F894DEBF0FBECDBFDF91E4
:10271000CF911F910F91FF90EF9008950895FF9230
:102720000F931F93CF93DF938C01F62ED72FC42FD7
:10273000222349F081E0809343020E94EB1E909394
:10274000420280934102809143028823C1F080912C
:102750004102909142020E94031F059780F0EF2DE5
:10276000FD2FD8014C2F50E0CD01801B910B841719
:1027700095071CF48D918193F7CF10924302DF915E
:10278000CF911F910F91FF9008950C94840E80912A
:10279000460281110DC00E943626811102C082E0DE
:1027A00001C081E080934602823011F40E943126FC
:1027B00081E090914602913009F080E008950E94F6
:1027C000C513809318010E94C71381110C942F1414
:1027D00008950E94C713811102C00C94311408950A
:1027E00081E0909147029A3008F080E008950F93BD
:1027F0001F93CF93DF93EC018B01809147028A30C6
:1028000038F4B801CE010E947F1481111DC00AC0A6
:1028100080914402909145020E94031F843F9140A1
:1028200080F715C0809147028F3F19F08F5F80932A
:102830004702809147028A3060F00E94EB1E90931D
:1028400045028093440203C01092470202C080E018
:1028500001C081E0DF91CF911F910F9108950C94F9
:10286000371C0C943A1CDF92EF92FF920F931F9348
:10287000CF93DF937901C82F880FDD0B41155105E8
:10288000A9F0FE0193E0EE0FFF1F9A95E1F7E75ED6
:10289000FE4F81819281885B9D4F208130E04217FD
:1028A000530708F49A01A9010E947E26CE010E94D6
:1028B000231DD82E8823D1F001151105B9F083E02E
:1028C000CC0FDD1F8A95E1F7FE01E75EFE4F4381E5
:1028D00050E00417150708F4A801C75EDE4F6C81AD
:1028E0007D81685B7D4FC7010E947E268D2DDF9123
:1028F000CF911F910F91FF90EF90DF9008950C946E
:10290000A2150C94BE150F931F93CF93DF9300D0A5
:1029100000D0CDB7DEB760915D0270915E0280910C
:102920005F02909160020E94121F6436710581055A
:10293000910528F10E949511DC01CB010296A11DA1
:10294000B11D89839A83AB83BC8300E010E020E053
:1029500030E044E050E0BE016F5F7F4F82E00E94B4
:102960003314182F882361F00E94F71E60935D02D4
:1029700070935E0280935F029093600201C011E049
:10298000812F0F900F900F900F90DF91CF911F919B
:102990000F910895AF92BF92CF92DF92EF92FF9284
:1029A0000F931F93CF93DF937C015B016A010E9419
:1029B000F013811103C001E010E002C00AE010E052
:1029C000C1E0D0E0F894B501C701F601099578940B
:1029D000811115C021960C171D0794F0CC9F900112
:1029E000CD9F300D300D112480E090E045E34A95F5
:1029F000F1F70000019682179307C1F7E3CF81E05A
:102A0000DF91CF911F910F91FF90EF90DF90CF90CA
:102A1000BF90AF900895AF92BF92CF92DF92EF92A6
:102A2000FF920F931F93CF93DF9300D000D01F929C
:102A3000CDB7DEB75B01E090BC01F090BD0101E0D5
:102A400010E09E012B5F3F4F40E050E060E070E0FF
:102A500080E00E943314182F882309F43EC06701D8
:102A60008FEFC81AD80A6091590270915A0280916A
:102A70005B0290915C020E94121F64367105810511
:102A8000910518F104E010E09E012F5F3F4F40E0F8
:102A900050E060E070E081E00E943314182F64E0A1
:102AA00070E0C6010E949B1891E02D81281390E0F0
:102AB000192351F10E94F71E6093590270935A0234
:102AC00080935B0290935C0211C064E070E0C601E9
:102AD0000E949B189D818913D5CFF7018181928136
:102AE000A381B48189839A83AB83BC83112361F072
:102AF00089819A81AB81BC81809355029093560263
:102B0000A0935702B09358028091550290915602BB
:102B1000A0915702B0915802F50180839183A2835E
:102B2000B383812F0F900F900F900F900F90DF9134
:102B3000CF911F910F91FF90EF90DF90CF90BF90BA
:102B4000AF9008950F931F93CF93DF93EC018B0108
:102B50004BE055E10E94CA14882351F043E854E148
:102B6000B801CE01DF91CF911F910F910C94CA143F
:102B700080E0DF91CF911F910F9108950F931F93E4
:102B8000CF93DF93F894C091BC01D091BD01CE01E9
:102B9000019624E0FB01DC0101900D922A95E1F7FA
:102BA00064E070E00E949B1888837894F8946D81AB
:102BB0007E818F819885009151021091520220915F
:102BC000530230915402601771078207930751F046
:102BD0006093510270935202809353029093540277
:102BE0000E9478117894DF91CF911F910F910895F1
:102BF0000E94F7200E94D00E0C9403210E9407210E
:102C00000E94660F0C9421210E94891E0E94DE20E2
:102C10000E94BC0E0E94F8150E94FE150E94C60E6E
:102C2000FBCF8091670280FF06C06091360170E0A3
:102C3000660F771F26C081FF04C06091360184E0D3
:102C400005C082FF07C06091360188E0689FB0012F
:102C5000112417C0909166029923D1F0609135013B
:102C6000961788F72091360188E0289F900111245B
:102C7000929FA001939F500D112470E0CA010E9401
:102C800043266038710540F46115710519F406C0DA
:102C900068E070E0862F08958FE7089581E0089539
:102CA0008091670280FF08C06091320170E07595E5
:102CB00067957595679521C081FF06C060913201C7
:102CC00070E07595679519C082FF04C0609132016C
:102CD00070E010C090916502992399F060913101E4
:102CE0009617A0F780913201899FC001112470E0EE
:102CF0000E9443266038710540F46115710519F48E
:102D000006C061E070E0862F08958FE7089581E0A6
:102D100008958D3E21F40E941116819504C08E3EC7
:102D200029F40E94111680936B0208958F3E21F4BE
:102D30000E941116819504C0803F29F40E9411164B
:102D400080936A020895893F19F40E94501605C0C5
:102D50008A3F31F40E945016819580936C02089549
:102D60008B3F21F40E945016819504C08C3F29F4BA
:102D70000E94501680936D0208959FE0980F98303E
:102D800078F421E030E0A90102C0440F551F9A9564
:102D9000E2F7CA0190916902892B80936902089534
:102DA0008D3F21F48091670281600BC08E3F21F43A
:102DB00080916702826005C08F3F29F4809167028D
:102DC00084608093670208958D3E39F490916B0280
:102DD00097FF35C010926B0259C08E3E29F4909136
:102DE0006B021916BCF32BC090916A028F3E29F436
:102DF00097FF25C010926A0249C0803F19F4191646
:102E0000CCF31DC090916C02893F29F41916BCF4D3
:102E100010926C023BC08A3F19F497FF10C0F8CFA4
:102E20008B3F39F490916D0297FF09C010926D02AB
:102E30002DC08C3F21F490916D021916BCF39FE0D8
:102E4000980F983080F421E030E0A90102C0440FCF
:102E5000551F9A95E2F7CA018095909169028923DE
:102E60008093690213C08D3F21F4809167028E7FA9
:102E70000BC08E3F21F4809167028D7F05C08F3F8C
:102E800029F4809167028B7F8093670280916A02A8
:102E9000811106C080916B02811102C010926602FE
:102EA00080916C02811106C080916D02811102C077
:102EB0001092650208950E94EB1E20916A02211172
:102EC00004C020916B02222321F09093640280932E
:102ED000630220916C02211104C020916D02222313
:102EE00021F0909362028093610288E692E00C9454
:102EF000C91DEF92FF920F931F93CF93DF9300D0E2
:102F000000D000D0CDB7DEB786E0E8E6F2E0DE0123
:102F1000119601900D928A95E1F7E0906A02F09087
:102F20006B0200916C0210916D0210926A02109275
:102F30006B0210926C0210926D02E11003C0FF2030
:102F400009F45DC080916302909164020E94031FA6
:102F5000AC0190916602992339F02091370130E05D
:102F60002417350758F04BC0209138018AE0289F7C
:102F7000900111242417350718F041C09F3F19F024
:102F80009F5F90936602EE2061F00E9411161E145E
:102F900014F09FEF01C091E0989F902D1124909321
:102FA0006A02FF2061F00E9411161F1414F09FEFB7
:102FB00001C091E0989F902D112490936B02309165
:102FC0006A023323E1F020916B022223C1F045EB2A
:102FD0003403C0011124992319F090936A0203C0AD
:102FE00081E080936A0235EB2303C0011124992309
:102FF00019F090936B0203C081E080936B02011182
:1030000003C0112309F45DC08091610290916202B6
:103010000E94031FAC0190916502992339F0209121
:10302000330130E02417350758F04BC020913401AC
:103030008AE0289F900111242417350718F041C019
:103040009F3F19F09F5F90936502002361F00E94FB
:103050005016101614F09FEF01C091E0989F902D2C
:10306000112490936C02112361F00E9450161116E6
:1030700014F09FEF01C091E0989F902D1124909340
:103080006D0230916C023323E1F020916D02222316
:10309000C1F045EB3403C0011124992319F090933A
:1030A0006C0203C081E080936C0235EB2303C00106
:1030B0001124992319F090936D0203C081E080934D
:1030C0006D0280916A0281110BC080916B028111A7
:1030D00007C080916C02811103C080916D02811143
:1030E0000E945B17EB82FC820D831E8386E0FE014B
:1030F0003196A8E6B2E001900D928A95E1F7269606
:103100000FB6F894DEBF0FBECDBFDF91CF911F91F8
:103110000F91FF90EF900895E8E6F2E086E0DF017E
:103120001D928A95E9F7109266021092650210923C
:10313000670208950895FC01680F791F8FEF91E3EE
:10314000E617F70771F02191822728E030E087FF2A
:1031500003C0880F892701C0880F21503109B9F7B2
:10316000EFCF0895CF93DF9397FF0DC0FB0122812E
:10317000222349F0EC010E94F018CE019F770E94B3
:1031800063190E943D1981E0DF91CF9108959091DC
:10319000A102923069F48A3040F490E009966AE026
:1031A00070E00E944326875A01C086500C94DF04C9
:1031B0000C94C1038CE090E00E94872690E0A0E090
:1031C000B0E08093A1029093A202A093A302B093D7
:1031D000A40208956091A1028CE090E00C949526E1
:1031E0000E94BB1D869581708093A6020E94BB1D24
:1031F00081708093A0028091A102813039F4809186
:10320000A602882319F089E30E94DF040E94EE0CD5
:103210008093A5020E94010D8091A102813071F07E
:1032200048F0823081F0843009F586EE0E94DF0498
:1032300088E11AC082EE0E943E0418C088E193E043
:103240000E947E0213C08091A002811103C083E519
:103250000E94DF0482EE0E943E048FE39CE9019706
:10326000F1F700C0000087E50E94DF048FE39CE9CE
:103270000197F1F700C0000008958091A10281300C
:1032800059F030F0823089F08430C9F488E215C0FA
:1032900082EE0E94940413C08CE20E94DF048091AD
:1032A000A602882361F089E308C082EE0E9494049C
:1032B0008091A002811103C083E50E94DF04809108
:1032C000A5020C94FE0C0F931F93CF93DF938C01F8
:1032D000CCE0D0E0C8010C2E02C0969587950A94E8
:1032E000E2F78F700E94C7182497CC3F8FEFD80762
:1032F00089F7DF91CF911F910F9108950F931F933D
:10330000CF93DF93EC018B01FB018281882361F075
:103310000E94EE0CCE01825E9C458530910520F422
:103320008093A1020E94EA18B801CE01DF91CF91EB
:103330001F910F910C94B218CF93DF93EC01FB0116
:103340008281882309F43CC1C430FDE5DF0760F4C5
:10335000CB3F9CE5D90788F49E0122503C4524319F
:10336000310508F02EC109C0C236EDE5DE0729F0AF
:10337000C63AFDE5DF0709F024C10E94ED0D9093E8
:103380008D0280938C02C1318CE5D80709F4C6C048
:1033900008F042C0C930ECE5DE0709F49BC000F537
:1033A000C5308CE5D80709F485C078F4C330ECE566
:1033B000DE0709F478C008F07AC0C230DC4509F0B5
:1033C000F5C080918C028160EFC0C7309CE5D907C1
:1033D00009F478C008F07AC080918C028061E4C062
:1033E000CD30FCE5DF0709F487C058F4CB309CE50D
:1033F000D90709F479C008F07BC080918C028860FD
:103400006FC0CF30FCE5DF0709F480C008F082C050
:1034100080918C02877FC8C0CE3F9CE5D90709F414
:1034200071C000F5C531FCE5DF0709F485C068F41B
:10343000C3319CE5D90709F475C008F095C00E9416
:10344000990780918C028F77AFC0CC3FFCE5DF07F6
:10345000A9F108F054C0CB3FDC4509F0A7C080912A
:103460008D0240C0C230EDE5DE0709F489C058F492
:10347000C1158DE5D80709F45AC008F069C08091DC
:103480008D0282602FC0C236EDE5DE0709F47CC0F4
:10349000C63AFDE5DF0709F481C0C330DD4509F018
:1034A00085C080E06EC080918C0282607DC080917A
:1034B0008C0216C080918C02886076C080918D024B
:1034C00082604FC080918C0280626EC080918C02BD
:1034D00080646AC00E94990780918C02806864C0F1
:1034E000846062C081603DC080918C028E7F5CC030
:1034F00080918C028D7F58C080918C0216C0809183
:103500008D0218C080918D028D7F2BC080918C021E
:103510008F7E4AC080918C028F7D46C080918C0244
:103520008F7B42C080918C02877F8B7F3DC08091D2
:103530008D028D7F8E7F15C080918C0282FB2227A9
:1035400020F991E0922790FB82F990FB83F92CC03F
:1035500080918D02982F909591708E7F892B90FB92
:1035600081F980938D0222C00E94990780918C027C
:1035700087FB222720F991E0922790FB87F914C05E
:1035800081E00E948E0E12C080918C0284FB222763
:1035900020F991E0922790FB84F906C080918C027B
:1035A000982F909590FB80F980938C0280918C02EB
:1035B00090918D020E94FE0D0E94990780E001C04B
:1035C00081E0DF91CF910895CF93DF9386319C45C1
:1035D00041F5EB010E94EE0C982F8A8120910201A7
:1035E00030910301882379F09A7A81E009F480E030
:1035F00080936E02911102C069E201C065E3C901C6
:103600000E94451E0AC080916E02811102C069E2CB
:1036100001C065E3C9010E94471E0E94330D80E08E
:1036200001C081E0DF91CF9108950F931F93CF9355
:10363000DF93C42FD22FFC0182818823C9F04093ED
:1036400071020E94EB1E9093700280936F0280E2E1
:103650008C0F883008F057C0C77081E001C0880F18
:10366000CA95EAF7DF91CF911F910F910C94E8046E
:1036700080917102481330C080916F029091700266
:103680000E94031F883C910538F510E21D0FCD17ED
:10369000B9F080E28C0F883040F4C77081E001C03F
:1036A000880FCA95EAF70E94EF04183028F581E0E8
:1036B0009D2F977001C0880F9A95EAF70E94E80441
:1036C000802F0E94DF041830F0F4D77081E001C031
:1036D000880FDA95EAF70AC080E28C0F883098F4F8
:1036E000C77081E001C0880FCA95EAF7DF91CF91DA
:1036F0001F910F910C94EF04802FDF91CF911F91B8
:103700000F910C94DF04DF91CF911F910F910895D9
:103710000F939C01CB01243F4CE5340731F188F431
:10372000293DFCE53F07D9F02A3D4CE5340779F106
:10373000283D3C45A9F506E221EE41EE68ED7CE529
:103740002BC0263FFCE53F07E1F0A8F0273F3C45B2
:1037500039F507E225EE46EE67EF7CE51DC007E28E
:1037600025EE45EE69ED7CE517C006E221EE40EE60
:1037700064EF7CE511C007E225EE44EE65EF7CE5E1
:103780000BC006E221EE42EE66EF7CE505C008E2E2
:1037900021E045EE6AED7CE50E94151B80E008C043
:1037A000FC018281882319F01092710201C081E02E
:1037B0000F9108958EE14A9B02C08150E1F74A9B28
:1037C000FECF08955A9880E28A95F1F75A9A0895A3
:1037D000FC012AE02A95F1F728E090E080E031E052
:1037E00040E14A95F1F7880F4A9B02C08160932718
:1037F00000C0000040E14A95F1F7215089F720E12F
:103800002A95F1F729B100C0000030E13A95F1F7AF
:1038100022FB222720F992272081920F908308957E
:10382000EF92FF920F931F93CF93DF931F92CDB729
:10383000DEB719828C017C01E60EF11C0E151F0506
:1038400051F00E94DA1BCE0101960E94E81BF8019C
:1038500081938F01F3CF81E09981911180E00F90E6
:10386000DF91CF911F910F91FF90EF900895529AA1
:103870005A9A089552985A9AEA9AE9E6F0E08081B5
:103880008F7C80830895615091E001C0990F6A9503
:10389000EAF720E031E0992361F0492F482319F03D
:1038A0005A9A232701C05A9840E24A95F1F7969513
:1038B000F2CF222311F05A9A01C05A9880E28A95D9
:1038C000F1F75A980895FF920F931F93CF93DF93C8
:1038D000EC018C01060F111DC017D10741F0F990C2
:1038E0000E94E21B68E08F2D0E94431CF5CFDF9100
:1038F000CF911F910F91FF9008951F920F920FB6D5
:103900000F9211240F931F932F933F934F935F9325
:103910006F937F938F939F93AF93BF93EF93FF9397
:10392000CF93DF931F92CDB7DEB719820E94DA1BC7
:10393000CE0101960E94E81B082F06950695069574
:10394000902F96959570202F2570920F292F237018
:1039500096959695920F877089135FC08981811122
:103960005CC0043008F059C080E18A95F1F75A9A9A
:10397000529A82E08A95F1F700C05A9888E0089F31
:1039800080011124D801A75EBE4F1696ED91FC91DF
:1039900017973097A9F06091BC017091BD01149602
:1039A0002D913C911597260F371F11968D919C9163
:1039B0001297680F791F13964C9113978C91099564
:1039C000F801E75EFE4F6381662351F08091BC01F0
:1039D0009091BD0124813581820F931F0E94631C49
:1039E0000E94E21B80E18A95F1F75A9852985A9A00
:1039F00080E18A95F1F7F801E75EFE4F608166236A
:103A000051F08091BC019091BD0121813281820FE2
:103A1000931F0E94101C0E94DA1B0F90DF91CF9120
:103A2000FF91EF91BF91AF919F918F917F916F9196
:103A30005F914F913F912F911F910F910F900FBE6A
:103A40000F901F9018950F931F93CF93DF9384309F
:103A500091050CF06DC0EC01F894529A5A9885E0EB
:103A60008A95F1F700009C2F969595702C2F257064
:103A7000920F892F83709695969523E0CC0FDD1FCA
:103A80002A95E1F7980F8E01092B0E94E21B84E032
:103A90008A95F1F700C068E0802F0E94431C80E106
:103AA0008A95F1F752985A9A4A9902C000C0FCCF01
:103AB00087E090E04A9B08C0019721F4529A5A9AF5
:103AC000789436C000C0F6CFFE01E75EFE4F6381FA
:103AD000662381F08091BC019091BD0124813581E4
:103AE000820F931F0E94101C811104C0529A5A9A8F
:103AF00078941FC00E94DA1B80E28A95F1F75A98E9
:103B0000529A80E18A95F1F7C75EDE4F688166239D
:103B100051F08091BC019091BD0129813A81820FC1
:103B2000931F0E94631C0E94E21B789481E001C0F5
:103B300080E0DF91CF911F910F9108959093BF0185
:103B40008093BE0108959093780280937702089540
:103B50000E94C713811103C0809172020895E09101
:103B60007702F0917802309721F00190F081E02DFA
:103B7000099480E008950E94A81D0895E0917702BD
:103B8000F0917802309721F00280F381E02D0994C2
:103B90000895E0917702F0917802309739F022E0B1
:103BA000DC012C930480F581E02D09940895209187
:103BB0007502309176022817390771F090937602DA
:103BC00080937502E0917702F0917802309721F0AE
:103BD0000680F781E02D09940895209173023091B9
:103BE00074022817390771F090937402809373025E
:103BF000E0917702F0917802309721F00084F1850E
:103C0000E02D09940895FC01329697E080E09150F0
:103C100029F021912223D9F38F5FF9CF08956623EC
:103C200049F0FC01329608962191621729F0E817B5
:103C3000F907D1F780E0089581E008959C01FC0127
:103C400032969FEF80E04191461789F09F3F19F42B
:103C5000411101C0982F8F5F8630A9F79F3F39F03F
:103C6000F901E90FF11D97FDFA9562830895089512
:103C70009C012A5F3F4FFC014281461301C0128222
:103C8000019682179307B9F708950C941E1E0C94A1
:103C9000381E029626E0FC0111922A95E9F7089554
:103CA00008950C94501E83E0809379020C94511E69
:103CB000811102C081E001C082E0809379020C94FE
:103CC000511E0C94581E81E0809379020C94511E71
:103CD0000C94631E08950C946A1E0C946B1E0C9435
:103CE0006A1E0C946A1E0C946A1ECF930E94711E69
:103CF0000E943A130E946F1EC0E08C2F0E94FE119A
:103D0000811104C0CF5FC830C1F701C081E0CF91FD
:103D1000089508951F920F920FB60F9211248F935A
:103D20009F93AF93BF9380917A02811113C08091CA
:103D3000A7029091A802A091A902B091AA0241966F
:103D4000A11DB11D8093A7029093A802A093A90280
:103D5000B093AA02BF91AF919F918F910F900FBE28
:103D60000F901F9018958091AF02843031F10E941E
:103D7000530310927A0220E488E190E00FB6F894A1
:103D8000A895809360000FBE2093600083B7817F69
:103D9000846083BF83B7816083BF7894889583B73D
:103DA0008E7F83BF0FB6F894A895809160008861DC
:103DB00080936000109260000FBE08950E949907E2
:103DC0000C94570382E084BD93E095BD9AEF97BDB4
:103DD00080936E0008952FB7F8948091A702909178
:103DE000A802A091A902B091AA022FBF08952FB7EF
:103DF000F8946091A7027091A8028091A902909115
:103E0000AA022FBF08959C014FB7F8948091A70292
:103E10009091A802A091A902B091AA024FBF821B63
:103E2000930B0895CF92DF92EF92FF922FB7F89401
:103E3000C090A702D090A802E090A902F090AA0238
:103E40002FBFA7019601261B370B480B590BCA0140
:103E5000B901FF90EF90DF90CF90089578941F9272
:103E60000F920FB60F9211248F939F93AF93BF932E
:103E70008091A7029091A802A091A902B091AA02F4
:103E80000196A11DB11D8093A7029093A802A09353
:103E9000A902B093AA02BF91AF919F918F910F9009
:103EA0000FBE0F901F90189587E797E79093010832
:103EB000809300089AE088E10FB6F894A895809363
:103EC00060000FBE90936000FFCF8091860208953E
:103ED000089522E02093E9002FEF3091E80021506F
:103EE00035FD06C035ED3A95F1F700002111F5CF0B
:103EF0002091E80025FF0BC040E050E066E070E054
:103F00000E9493218091E8008E778093E8000895C5
:103F1000CF93DF9321E02093E9002FEF3091E80069
:103F2000215035FD06C035ED3A95F1F7000021111D
:103F3000F5CF2091E80025FF14C0EC0140E050E0EF
:103F400068E070E00E9493218091E8008E77809372
:103F5000E80088E0FE01AEE7B2E001900D928A959C
:103F6000E1F7DF91CF91089580937B0270937D02FA
:103F700060937C028091AF02843001F582E08093EF
:103F8000E9008FEF9091E800815095FD06C095ED16
:103F90009A95F1F700008111F5CF8091E80085FF37
:103FA0000DC040E050E063E070E08BE792E00E94DB
:103FB00093218091E8008E778093E8000895BC01FA
:103FC00084E00C94B41FBC0183E00C94B41F809176
:103FD000AE02811109C00E9424230E948123809196
:103FE000E20084608093E20008951092AE0208958A
:103FF0000C94681E6091AB0281E0611101C080E009
:104000000C94531E9091AF0281E0943009F080E04F
:104010006091AB020C94581E42E061EC81E00E947A
:104020009D2242E261EC82E00E949D229091AF02CB
:1040300081E0943009F080E06091AB020C94611E45
:104040008091B102833009F461C030F4813071F0A5
:10405000823009F49AC008958A3009F486C08B3002
:1040600009F46CC0893009F0A8C020C08091B0026A
:10407000813A09F0A2C08091E800877F8093E80030
:104080008091B4029091B502892B21F468E08EE70B
:1040900092E003C060E080E090E070E00E94DE21EA
:1040A0008091E8008B778093E80008958091B002BA
:1040B000813209F082C08091B4029091B5020297DA
:1040C00008F07BC08091E800877F8093E8008091B2
:1040D000E80082FD05C08091AF028111F8CF6DC06C
:1040E0002091F3008091F20090E0922B029731F43E
:1040F0008091F100813011F0863021F48091F1003F
:10410000809386028091E8008B7753C08091B00243
:10411000813A09F052C08091B4029091B502892B86
:1041200009F04BC08091E800877F8093E800809180
:10413000E80080FFFCCF8091450136C08091B0023D
:104140008132D9F58091B4029091B502892BA9F5FD
:104150008091E800877F8093E8000E94D2228091BE
:10416000B202809345010C9499078091B00281328C
:1041700021F58091E800877F8093E8000E94D22299
:104180008091B3028093870208958091B002813AB2
:10419000A1F48091E800877F8093E8008091E80097
:1041A00080FFFCCF809187028093F1008091E8002E
:1041B0008E778093E8000C94D222089584B7877F8D
:1041C00084BF0FB6F894A8958091600088618093B1
:1041D0006000109260000FBE90E080E80FB6F89487
:1041E00080936100909361000FBE0C94631E0E9447
:1041F00024230E948123E2EEF0E0808184608083AA
:1042000078940C94162689E391E00C94A31D809178
:10421000AF028530A9F48091AF02853079F40E9415
:10422000B31E8091AD028823B1F30E94751E8823CE
:1042300091F30E947D210E949907EDCF0C94DE1E20
:10424000089508950C942421292F33272330310514
:10425000C9F060F42130310581F02230310509F0D8
:1042600044C08BE390E022EF32E043C021323105BD
:10427000E1F02232310549F138C082E190E02DE2CF
:1042800033E037C099278130910549F028F0029733
:1042900061F5E8ECF2E005C0EEEEF2E002C0E4EE1B
:1042A000F2E0849190E09F0124C06115710541F016
:1042B00061307105D1F489E090E02DE133E019C05F
:1042C00089E090E024E033E014C06115710541F00D
:1042D0006130710551F48BE790E02FE333E009C0C2
:1042E00080E490E02AEB33E004C080E090E020E03E
:1042F00030E0FA0131832083089580E189BD82E1B5
:1043000089BD09B400FEFDCF8091D8008F7D8093D8
:10431000D8008091E00082608093E0008091E0000E
:1043200081FDFCCF0895CF92DF92EF92FF920F9321
:104330001F93CF93DF93EC018B017A010E94F1224E
:10434000811133C0E114F10439F0F70180819181CA
:10435000081B190BC80FD91FC12CD12C0115110531
:1043600019F18091E80085FD16C08091E8008E77F4
:104370008093E800E114F10449F0F7018081918114
:10438000C80ED91ED182C08285E00FC00E94F122E2
:10439000882321F30AC089918093F100015011090B
:1043A000FFEFCF1ADF0ADACF80E0DF91CF911F91C4
:1043B0000F91FF90EF90DF90CF9008952091B6027B
:1043C0003091B7022617370748F06115710539F4A7
:1043D0002091E8002E772093E80001C0B901FC018C
:1043E00020E06115710579F18091AF028823F1F128
:1043F0008530F1F18091E80083FD3CC08091E800B8
:1044000082FD2EC08091E80080FFEBCF2091F30069
:104410008091F20090E0922B6115710551F0883087
:10442000910538F421912093F100615071090196B2
:10443000F3CF21E0089709F020E08091E8008E7723
:104440008093E800CECF2111CFCF0AC08091AF0278
:10445000882361F0853061F08091E80083FD0AC017
:104460008091E80082FFF2CF80E0089582E0089515
:1044700083E0089581E008952091B6023091B7025B
:104480002617370748F06115710539F42091E800C7
:104490002E772093E80001C0B901FC0120E06115EE
:1044A000710591F18091AF02882309F440C08530F5
:1044B00009F43FC08091E80083FD3DC08091E80091
:1044C00082FD2FC08091E80080FFE9CF2091F300AA
:1044D0008091F20090E0922B6115710559F08830BF
:1044E000910540F424912093F100319661507109B7
:1044F0000196F2CF21E0089709F020E08091E800D2
:104500008E778093E800CBCF2111CCCF0AC0809169
:10451000AF02882361F0853061F08091E80083FD6F
:104520000AC08091E80082FFF2CF80E0089582E027
:10453000089583E0089581E00895982F973068F5F5
:104540009093E900981739F07091EC002091ED00FC
:104550005091F00003C0242F762F50E021FD02C0BF
:104560009F5FECCF3091EB003E7F3093EB003091BA
:10457000ED003D7F3093ED003091EB0031603093E2
:10458000EB007093EC002093ED005093F00020912D
:10459000EE0027FDE5CF80E008958F708093E9005D
:1045A00081E008958091B00287FF11C08091E800FA
:1045B00082FD05C08091AF028111F8CF11C08091BA
:1045C000E8008B770BC08091AF02882349F080917F
:1045D000E80080FFF8CF8091E8008E778093E800B4
:1045E00008952091E4003091E50095E64091EC00BB
:1045F000842F817040FF23C08091E80080FD1DC0A2
:104600008091AF02882399F0853099F08091EB007A
:1046100085FD11C04091E4005091E5002417350755
:1046200029F3915011F09A01E1CF84E0089582E0DE
:10463000089583E0089581E0089580E00895409111
:10464000E80042FFDDCF08950E9492230E949A2342
:10465000E0EEF0E0808181608083E8EDF0E0808131
:104660008F77808319BCA7EDB0E08C918E7F8C93FF
:1046700080818F7E80831092AE0208950F931F93E6
:10468000CF93DF930E9492230E949A23C8EDD0E03B
:1046900088818F77888388818068888388818F7DEF
:1046A000888319BC1092AF021092AB021092AD0237
:1046B0001092AC0200EE10E0F80180818B7F8083C5
:1046C00088818160888342E060E080E00E949D22D2
:1046D000E1EEF0E080818E7F8083E2EEF0E0808189
:1046E00081608083808188608083F80180818E7FF3
:1046F0008083888180618883DF91CF911F910F91A2
:104700000895E8EDF0E080818F7E8083E7EDF0E0B2
:1047100080818160808384E082BF81E08093AE02EB
:104720000C943E23E8EDF0E080818E7F8083109230
:10473000E20008951092DA001092E10008951F92AD
:104740000F920FB60F9211242F933F934F935F93C5
:104750006F937F938F939F93AF93BF93EF93FF9349
:104760008091E10082FF0BC08091E20082FF07C0D0
:104770008091E1008B7F8093E1000E94152680915B
:10478000DA0080FF1FC08091D80080FF1BC080919D
:10479000DA008E7F8093DA008091D90080FF0DC00F
:1047A00080E189BD82E189BD09B400FEFDCF81E0D1
:1047B0008093AF020E94E71F05C019BC1092AF02A0
:1047C0000E94F51F8091E10080FF19C08091E200F6
:1047D00080FF15C08091E2008E7F8093E20080917F
:1047E000E20080618093E2008091D8008062809333
:1047F000D80019BC85E08093AF020E94FA1F809117
:10480000E10084FF30C08091E20084FF2CC080E191
:1048100089BD82E189BD09B400FEFDCF8091D80039
:104820008F7D8093D8008091E1008F7E8093E1009E
:104830008091E2008F7E8093E2008091E2008160AF
:104840008093E2008091AB02882311F084E007C0DE
:104850008091E30087FD02C081E001C083E0809386
:10486000AF020E9402208091E10083FF29C0809165
:10487000E20083FF25C08091E100877F8093E10003
:1048800082E08093AF021092AB028091E1008E7FB4
:104890008093E1008091E2008E7F8093E20080911E
:1048A000E20080618093E20042E060E080E00E94EC
:1048B0009D228091F00088608093F0000E94F81F94
:1048C000FF91EF91BF91AF919F918F917F916F91E8
:1048D0005F914F913F912F910F900FBE0F901F90BE
:1048E00018951F920F920FB60F9211242F933F939A
:1048F0004F935F936F937F938F939F93AF93BF93E8
:10490000CF93DF93EF93FF93C091E900CF70809135
:10491000EC00D82FD17080FDD0E81092E900809192
:10492000F000877F8093F00078940E94B524109265
:10493000E9008091F00088608093F000CD2BCF706B
:10494000C093E900FF91EF91DF91CF91BF91AF91BB
:104950009F918F917F916F915F914F913F912F9197
:104960000F900FBE0F901F9018951F93CF93DF935A
:10497000CDB7DEB7AA970FB6F894DEBF0FBECDBF96
:10498000E0EBF2E08091F100819322E0E83BF20756
:10499000C9F70E9420208091E80083FF2EC18091FA
:1049A000B0029091B102492F50E04A30510508F011
:1049B00024C1FA01EE59FF4F0C945726803821F09C
:1049C000823809F01AC108C08091AC029091AD0202
:1049D000992389F082600FC08091B4028F70873074
:1049E00008F00BC18093E9008091EB0085FB8827DC
:1049F00080F91092E9009091E800977F9093E80089
:104A00008093F1001092F100D1C0282F2D7F09F082
:104A1000F4C0882319F0823061F0EFC08091B202B7
:104A2000813009F0EAC0933009F080E08093AD0254
:104A30002EC08091B20281112AC08091B4028F7081
:104A40002FEF280F263008F0D8C08093E90020917E
:104A5000EB0020FF1CC0933021F48091EB008062BA
:104A600014C09091EB0090619093EB0021E030E056
:104A7000A90102C0440F551F8A95E2F74093EA004E
:104A80001092EA008091EB0088608093EB00109216
:104A9000E9008091E800877F8093E8000E94D2229D
:104AA000ACC08111AAC01091B2021F778091E300BF
:104AB0008078812B8093E3008091E800877F80934A
:104AC000E8000E94D2228091E80080FFFCCF809114
:104AD000E30080688093E300111102C082E001C00E
:104AE00083E08093AF0289C08058823008F085C08F
:104AF0008091B2029091B3028C3D53E0950779F515
:104B000083E08A838AE289834FB7F894DE011396A3
:104B100020E03EE051E2E32FF0E050935700E491B3
:104B200020FF03C0E295EF703F5FEF708E2F90E0A3
:104B3000EA3010F0C79601C0C0968D939D932F5F09
:104B4000243149F74FBF8091E800877F8093E800C8
:104B50006AE270E0CE0101960E94DE2116C06091EB
:104B6000B4027091B502AE014F5F5F4F0E942221E7
:104B7000BC01892B09F441C09091E800977F909384
:104B8000E80089819A810E943C228091E8008B771D
:104B90008093E80032C0803881F58091E800877FFB
:104BA0008093E8008091AB028093F1008091E8004F
:104BB0008E7772CF811121C08091B2029091B302A1
:104BC00099270297D4F48091E800877F8093E800CA
:104BD0008091B2028093AB020E94D2228091AB02FC
:104BE000811106C08091E30087FD02C081E001C011
:104BF00084E08093AF020E940C208091E80083FF44
:104C00000AC08091E800877F8093E8008091EB00E4
:104C100080628093EB00AA960FB6F894DEBF0FBEB9
:104C2000CDBFDF91CF911F9108950895CF938091CB
:104C3000AF028823A1F0C091E900CF709091EC0001
:104C4000892F817090FD80E8C82B1092E900809137
:104C5000E80083FD0E94B524CF70C093E900CF9196
:104C600008950E9424231092AF020895E8EDF0E029
:104C70008081806180838AE18A95F1F700C080910C
:104C8000D9008170089597FB072E16F4009407D081
:104C900077FD09D00E945D2607FC05D03EF4909573
:104CA00081959F4F0895709561957F4F0895EE0F00
:104CB000FF1F0590F491E02D0994AA1BBB1B51E145
:104CC00007C0AA1FBB1FA617B70710F0A61BB70B7C
:104CD000881F991F5A95A9F780959095BC01CD0121
:104CE0000895FB01DC0104C08D910190801921F42D
:104CF00041505040C8F7881B990B0895FB01DC0117
:104D000002C001900D9241505040D8F70895F99992
:104D1000FECF92BD81BDF89A992780B50895A8E18C
:104D2000B0E042E050E00C94BB26262FF999FECF6C
:104D300092BD81BDF89A019700B4021639F01FBAEE
:104D400020BD0FB6F894FA9AF99A0FBE089503960B
:104D5000272F0E9496260E949526252F0E94962690
:104D6000242F0C9496260196272F0E9496260C94A9
:104D70009526DC01CB01FC01F999FECF06C0F2BDFE
:104D8000E1BDF89A319600B40D9241505040B8F709
:064D90000895F894FFCF26
:104D9600C8002502C6F7F6F5F43133323693919002
:104DA6009466973435FFFFFF010000000100000004
:104DB60000000000040100000004050000000000DF
:104DC60000280850011E0A1401651F881F691FE389
:104DD6001FDF1F681F01F4F5F6F7C693363233312D
:104DE60097669490913534FFFFFFE200E900EA00F0
:104DF600B500B600B700CD008301CC008A01920150
:104E060094012102230224022502260227022A02F5
:104E1600B300B4006F007000818283E200E900EA0B
:104E260000B500B600B700CD008301CC008A019220
:104E36000194012102230224022502260227022AC6
:0E4E460002B300B4006F007000818283480246
:00000001FF
